:02000002D0002C
:1040000000400D00BC6D0D00000006000C00050115
:0840100004017E050000000020
:044018006C690D00C2
:10401C0009480A49884208B505D0094A824202D0AB
:10402C00121A02F03DFC0748074A0021121A02F04E
:10403C0042FC014808BD00BF40E30320286D0D0081
:10404C00ACE30320ACE30320F0E7032070B501F0F0
:10405C009FF9074C074BE41AA40800251E46A542FD
:10406C0004D056F8253098470135F8E770BD00BFED
:10407C00186D0D00DC6C0D0000F032B808B500F0C6
:10408C0093F8BDE8084001F051B900F0ADBA00F06A
:10409C00B3BA00F0B1BA0078B0FA80F040097047BA
:1040AC000123037070470000014801F019BB00BFE9
:1040BC00B4E3032038B5046805467CB16368013B62
:1040CC0063605BB9236820469B689847A368013BF3
:1040DC00A3601BB923682046DB689847284638BD87
:1040EC001FB500F099FD4FF4165100F089FD012128
:1040FC00072001F029FC00240021072001F035FCE9
:10410C00224601940094012309490A4800F0D8F989
:10411C00094B0A491B788DF8003022463C2302A833
:10412C0000F064FF03A8FFF7C5FF04B010BD00BF8B
:10413C00B5400D0080690D00B0E3032087690D00C8
:10414C0000B5144BC7B010EE100A1B68029301F0B7
:10415C00DBFE114ACDE900014FF4807106A800F096
:10416C005BFA00F059FD06AB0C4A012101F0B8F9DD
:10417C000B4B19680B4B1B788DF8003006AA3C23AF
:10418C0004A800F033FF05A8FFF794FF47B05DF8D3
:10419C0004FB00BFB4E3032099690D00BC690D005A
:1041AC0040E30320C4E3032000B52DED028B9FED0B
:1041BC00128A85B0B0EE480A0621684601F0A1FAD1
:1041CC000121072001F0D1FBB0EE480AFFF7B8FF40
:1041DC00642001F00BF90021072001F0C6FB6846B2
:1041EC0001F024FA43F6982001F000F905B0BDEC7B
:1041FC00028B5DF804FB00BF0000904210B50A4B27
:10420C000A4C00221A700A4B01221A7000F018F99D
:10421C000849204601F051FA2046074A0749BDE8F3
:10422C00104001F0BBBB00BFB0E30320B4E303209C
:10423C00C4E30320F86B0D00ACE3032039560D00EA
:10424C0008B5024B1B681B68019308BD4C020300A8
:10425C0008B5024B1B685B68019308BD4C02030058
:10426C0008B5024B1B681B69019308BD4C02030087
:10427C0008B5024B1B685B69019308BD4C02030037
:10428C0008B5024B1B689B69019308BD4C020300E7
:10429C0008B5024B1B68DB69019308BD4C02030097
:1042AC0008B5024B1B681B6A019308BD4C02030046
:1042BC0008B5024B1B681B6A019308BD280203005A
:1042CC0008B5024B1B685B6A019308BD280203000A
:1042DC0008B5024B1B689B6A019308BD28020300BA
:1042EC0008B5024B1B68DB6A019308BD280203006A
:1042FC0008B5024B1B681B6B019308BD2802030019
:10430C0008B5024B1B685B6B019308BD28020300C8
:10431C0008B5024B1B681B6C019308BD28020300F7
:10432C0008B5024B1B681B68019308BD3C020300D7
:10433C0008B5024B1B68DB68019308BD3C02030007
:10434C0008B5024B1B681B69019308BD3C020300B6
:10435C0008B5024B1B685B69019308BD3C02030066
:10436C0008B5024B1B689B69019308BD3C02030016
:10437C0008B5024B1B68DB69019308BD3C020300C6
:10438C0008B5024B1B681B6A019308BD3C02030075
:10439C0008B5024B1B689B6A019308BD3C020300E5
:1043AC0008B5024B1B685B69019308BD64020300EE
:1043BC0008B5024B1B689B68019308BD48020300BB
:1043CC0008B5024B1B681B69019308BD480203002A
:1043DC0008B5024B1B685B69019308BD48020300DA
:1043EC0008B5024B1B681B6B019308BD4802030008
:1043FC0008B5024B1B685B6C019308BD48020300B7
:10440C0008B5024B1B685B68019308BD18020300DA
:10441C0008B5024B1B685B69019308BD18020300C9
:10442C0008B5024B1B68DB69019308BD3002030021
:10443C0008B5024B1B681B6A019308BD30020300D0
:10444C0008B5024B1B681B68019308BD2C020300C6
:10445C0008B5024B1B689B68019308BD2C02030036
:10446C0008B5024B1B68DB68019308BD2C020300E6
:10447C0008B5024B1B681B69019308BD2C02030095
:10448C0008B5024B1B689B68019308BD68020300CA
:10449C0008B5024B1B68DB68019308BD680203007A
:1044AC0008B5024B1B685B69019308BD440203000D
:1044BC0008B5024B1B681B6A019308BD440203003C
:1044CC0008B5024B1B685B6A019308BD44020300EC
:1044DC0008B5024B1B68DB6B019308BD440203005B
:1044EC0008B5024B1B685B68019308BD40020300D2
:1044FC0008B5024B1B689B68019308BD4002030082
:10450C0008B5024B1B68DB68019308BD4002030031
:10451C0008B5024B1B681B69019308BD40020300E0
:10452C0008B5024B1B685B69019308BD4002030090
:10453C0008B5024B1B689B69019308BD4002030040
:10454C0008B5024B1B68DB69019308BD40020300F0
:10455C0008B5024B1B681B6A019308BD400203009F
:10456C0008B5024B1B681B6B019308BD400203008E
:10457C0008B5024B1B685B6B019308BD400203003E
:10458C0008B5024B1B685B68019308BD2002030051
:10459C0008B5024B1B685B69019308BD2002030040
:1045AC0008B5024B1B68DB6C019308BD20020300AD
:1045BC0008B5024B1B685B6D019308BD200203001C
:1045CC0008B5034B1B68D3F88830019308BD000075
:1045DC002002030008B5034B1B68D3F894300193F9
:1045EC0008BD00002002030008B5024B1B681B68C5
:1045FC00019308BD1C02030008B5024B1B685B68E5
:10460C00019308BD1C02030008B5024B1B689B6894
:10461C00019308BD1C02030008B5024B1B68DB6943
:10462C00019308BD1C02030008B5024B1B685B6AB2
:10463C00019308BD1C02030008B5024B1B68DB6A22
:10464C00019308BD1C02030008B5024B1B681B6BD1
:10465C00019308BD1C02030010B58368044613B116
:10466C00032201469847204610BD00231A46406895
:10467C00FFF736BF002202214068FFF741BF00223E
:10468C0011464068FFF734BF002211464068FFF71F
:10469C003FBF00231A4619464068FFF741BF00236D
:1046AC001A4619464068FFF743BF002281F001010A
:1046BC004068FFF745BF00224068FFF751BF00225A
:1046CC0011464068FFF754BF002211464068FFF7BF
:1046DC003FBF2DE9F043002495B016460D46074622
:1046EC0000F0FAFA214620220CA8009402F0E3F81C
:1046FC0040230C9321466B460CAA3046FFF7C8FEAC
:10470C000446002844D1024601216868FFF700FFE7
:10471C000221804622466868FFF7FAFE009E814619
:10472C002146002E34D0002932D17368022B02D0DE
:10473C000A2B09D02AE0B8F1000F27D0716938464E
:10474C00043100F0F6FA20E0B9F1000F1ED07469C4
:10475C00112201A802F0AFF806238DF8143001AD38
:10476C0004F108031834186859682A4603C2083340
:10477C00A3421546F7D101A906A807AD00F0BAFA75
:10478C000FCD3C1D0FC42B6823700121F669C8E7BF
:10479C000098FFF775FE384615B0BDE8F0830000B1
:1047AC00024B034A1A6000225A607047C8E3032088
:1047BC00DC690D00002211464068FFF7C9BE0022DB
:1047CC0011464068FFF7D4BE00224068FFF7C8BE10
:1047DC00002281F001014068FFF7B2BE00231A46A7
:1047EC0001214068FFF7A4BE00231A461946406811
:1047FC00FFF796BE002211464068FFF789BE0022E3
:10480C0011464068FFF774BE002202214068FFF792
:10481C0077BE00231A464068FFF762BE38B50546DE
:10482C0088B104684CB1A3681BB103222146204611
:10483C0098471021204601F0B6F828461421BDE80F
:10484C00384001F0B0B838BD10B103685B68184748
:10485C00704710B503680446BBB15868FFF7A8FD54
:10486C0078B923685A7C12B95868FFF7A9FD2368F8
:10487C005868FFF7ADFD20680023236028B1FFF7CF
:10488C00CDFF206808B1FFF7C9FF204610BD00001E
:10489C0038B50C4B03600446D0F8CC0108B1FFF7D7
:1048AC00F8FBD4F8C45135B12846FFF7D2FF0421E8
:1048BC00284601F078F8A06808B1FFF7C5FF20463C
:1048CC0038BD00BF106A0D0038B50E4C0E4B23607E
:1048DC000025022304F5E4706360A560C4F8C4519C
:1048EC00C4F8C851FFF784FD084BC4F8CC5184F8C8
:1048FC00D05123602046064A0649BDE8384001F0F5
:10490C004DB800BFD0E30320DC690D00106A0D0028
:10491C00ACE303209D480D00002211464068FFF7D0
:10492C00F7BD002211464068FFF712BE0022114667
:10493C004068FFF71DBE00224068FFF711BE002241
:10494C0081F001014068FFF7FBBD00231A461946B0
:10495C004068FFF7EDBD00231A4619464068FFF783
:10496C00DFBD002211464068FFF7C2BD00220221C4
:10497C004068FFF7C5BD00231A464068FFF7B0BD7D
:10498C00024B04225A60024A1A607047A4E50320C5
:10499C00446A0D007047F8B5064615460C468F184C
:1049AC00BC4206D0336814F8011B9B68304698470C
:1049BC00F6E72846F8BD0022007CFFF779BC002101
:1049CC00007CFFF77DBC0021007CFFF781BC00213F
:1049DC00007CFFF785BC0021007CFFF789BC10B57B
:1049EC001421044600F0DFFF204610BD10B504462C
:1049FC004FF47A730846A3600021044B2074616065
:104A0C002360FFF785FC204610BD00BF786A0D00BF
:104A1C000021007CFFF774BC10B5836804460BB909
:104A2C0000F0C3FFC3689847A3681BB1032221465B
:104A3C002046984720461021BDE8104000F0B3BF37
:104A4C0070474174704708B5007CFFF7A1FC20EA61
:104A5C00E07008BD08B5007CFFF772FC20EAE0703E
:104A6C0008BD08B5007CFFF77BFC30EA200028BFAE
:104A7C004FF0FF3008BD08B5007CFFF769FC30EA49
:104A8C00200028BF4FF0FF3008BD007CFFF770BC42
:104A9C0010B51421044600F086FF204610BD70B5F9
:104AAC00457C04460E4625B9007CFFF771FC0028B6
:104ABC0005DD3146207CBDE87040FFF739BC284647
:104ACC0070BD000010B50446084611460022626015
:104ADC004FF47A72A260054A22600122207462743B
:104AEC001A46FFF71DFC204610BD00BFA06A0D0042
:104AFC00007CFFF745BC000038B50C4D296811F05F
:104B0C00010411D12846FFF7C6FA68B1084A094BCF
:104B1C0009482146FFF7D6FF2846FFF7C1FA074A96
:104B2C000749054800F03AFF034838BD44E6032026
:104B3C0048E60320C0E50320ACE50320ACE30320EA
:104B4C004D4A0D000B68036013B15A6801325A606C
:104B5C00704741747047704708B50021007CFFF71F
:104B6C008FFB30EA200028BF4FF0FF3008BD08B59E
:104B7C000121007CFFF784FB30EA200028BF4FF0B6
:104B8C00FF3008BD08B5007CFFF772FB20EAE0702F
:104B9C0008BD08B5007CFFF763FB20EAE07008BD98
:104BAC00007CFFF77DBB10B51421044600F0FBFE22
:104BBC00204610BD38B50446007C0D46FFF758FB67
:104BCC00002801DC607C28B12946207CFFF760FBC3
:104BDC0020EAE07038BD000010B504460023636085
:104BEC004FF47A73A360054B2360012308462174AC
:104BFC0063741146FFF724FB204610BDD06A0D00EC
:104C0C000022007CFFF724BB10B5142204460021BF
:104C1C0001F051FE204610BD30B50E4D87B001A8F5
:104C2C00FFF7F2FF296811F0010410D12846FFF7B5
:104C3C0032FA60B101AA21460748FFF7CDFF28469A
:104C4C00FFF72EFA054A0649034800F0A7FE024872
:104C5C0007B030BDCCE60320D0E60320ACE3032044
:104C6C00634B0D00704710B51821044600F09BFEF5
:104C7C00204610BDF0B5037D062B8DB00E4600F11D
:104C8C0004074FF0000402D000F1080518E00CAD49
:104C9C00394605F8304D2F232A460A20FFF780FBB2
:104CAC00284601F054FE33680246DB68294630463C
:104CBC0098470FE024B12E21304600F0D3FB04447A
:104CCC0015F8011D0A22304600F008FCBD420444D0
:104CDC00F0D120460DB0F0BD10B5054B04461122A5
:104CEC0040F8043B002101F0E6FD204610BD00BF5A
:104CFC00006B0D000346074A10B543F8042B01F175
:104D0C00100251F8044B43F8044B9142F9D10A7844
:104D1C001A7010BD006B0D0010B59DF8084044EAE8
:104D2C00032343EA024242EA016104234160037512
:104D3C0010BD37B50D788B784A78C9780091294623
:104D4C00FFF7EAFF03B030BD70470020704710B585
:104D5C001021044600F027FE204610BD08B508B10E
:104D6C00FFF7F5FF08BD0022026010B54FF69C72EC
:104D7C008280B1F9044084808A8002680C680460E7
:104D8C000A6010BD10B504460068FFF735FC2046DC
:104D9C0010BD38B5C468F4B12378022B03D104F1EB
:104DAC000C00FFF7EFFF656835B12846FFF754FCA0
:104DBC001021284600F0F7FDA56835B12846FFF70D
:104DCC004BFC1021284600F0EEFD20461421BDE8D6
:104DDC00384000F0E8BD38BD13B5044691E8050035
:104DEC0000234B600B602060626001A8019300936C
:104DFC00FFF760F9204602B010BDF7B50C4602ADC6
:104E0C0054F8043B45F8083D06460F4601A82146D8
:104E1C00FFF798FE29463046FFF7DEFF01A8FFF7A3
:104E2C0049F92046FFF746F93846082100F0BBFD4A
:104E3C00304603B0F0BD13B50B46044603C88DE8ED
:104E4C00030093E8030084E803009DE8030083E873
:104E5C00030002B010BD000038B500230446036007
:104E6C0010200D46FFF711F928B101234360836030
:104E7C00024B0360C5602060204638BD146B0D00EA
:104E8C00826810B50AB900F090FDC368BDE8104007
:104E9C00184708B5006800F11001FFF7F1FF08BDD5
:104EAC00826810B50AB900F080FDC368BDE81040F7
:104EBC00184708B5006800F11001FFF7F1FF08BDB5
:104ECC0038B5002383608B6804460D462BB1022253
:104EDC009847EB68E360AB68A360204638BD0000E0
:104EEC00F0B589B004686846FFF73DFF00238DF8E4
:104EFC0008304FF00202D4E84F3F002B03D1C4E836
:104F0C00412F0029F7D102D08DF8083063E014F15D
:104F1C000C0503D069462846FFF725FFBFF35F8FCA
:104F2C0001236370002004F10803BFF35F8F53E883
:104F3C00006F43E80002002AF9D1BFF35F8F002E07
:104F4C0049D0FFF72DFB20B129463046FFF798FFDB
:104F5C003AE0314602A8FFF7B3FFE068B4F910500D
:104F6C0008B101F0D9FC06901020ADF81C50FFF7E9
:104F7C008CF80546E8B1002787601820FFF785F804
:104F8C00044688B10146876002A8FFF754FF049BD2
:104F9C00A268A360059B049206A9E268E36004F191
:104FAC0010000592FFF7DFFE0D4BEB600D4B2C60F4
:104FBC00AB6006A8FFF7E6FE02A8FFF74DFB002248
:104FCC0029460948FFF7F4FA3046FFF745FB102154
:104FDC00304600F0E8FC6846FFF7D4FE09B0F0BD9F
:104FEC009F4E0D0015510D00254A0D002DE9F04F77
:104FFC008BB006460F46904699469DF850A0FFF799
:10500C004FFA07AD834630BB4FF62E73059005A9BA
:10501C002846ADF81830FFF7A6FE1420FFF735F838
:10502C00044658B10223037001234370C0F804B046
:10503C00C0F808B029460C30FFF795FE30462146E3
:10504C0040F8044BFFF708FF2846FFF79BFE05A826
:10505C00FFF798FE52E000240C2314206C60AC6027
:10506C000793FFF712F8014618B1047044704460BE
:10507C00846004A80391FFF7EFFE224B08930820ED
:10508C00FFF703F8044628B1039B40F8043B04A93E
:10509C00FFF758FD00955FFA8AF34A4641463846B9
:1050AC000994FFF705FA20B9039B5B7803F0FF0224
:1050BC0083B1039B059304A906A8FFF743FD05A93B
:1050CC003046FFF789FE06A8FEF7F4FF04A8FEF7AA
:1050DC00F1FF13E04FF69C7305A903A80592ADF8F8
:1050EC001830FFF7FDFE05A8FFF74CFE05A809993F
:1050FC00FFF783FE06A8FEF7DDFFDAE730460BB0BC
:10510C00BDE8F08F85520D00022AF8B5044606D092
:10511C00032A17D0012A22D10B6803601FE0182044
:10512C000E68FEF7B2FF054650B13146FFF7C8FED8
:10513C003069B6F9147008B101F0EEFB2861AF824A
:10514C0025600CE0046854B104F11000FFF71AFE5E
:10515C002046FFF781FA1821204600F024FC00209D
:10516C00F8BD38B5002383608B6804460D462BB11F
:10517C0002229847EB68E360AB68A360204638BD19
:10518C00022A70B5044606D0032A11D0012A18D180
:10519C000B68036015E014200E68FEF776FF0546D9
:1051AC0020B13146FFF7DDFF337C2B74256008E01E
:1051BC00046834B12046FFF74FFA1421204600F062
:1051CC00F2FB002070BD0000F0B5002387B00C4648
:1051DC00BFF35F8F50E8006F40E80032002AF9D12E
:1051EC00BFF35F8F002E3FD01846FFF7D9F9074663
:1051FC0020B121463046FFF753FE2EE0314601A880
:10520C00FFF7AFFF23788DF814301020FEF73DFF29
:10521C000546D0B187601420FEF737FF044678B1FD
:10522C008760014601A8FFF706FE039BA268A360F6
:10523C00049B0392E268E3609DF81430049223749B
:10524C000A4BEB600A4B2C60AB6001A8FFF704FA29
:10525C00002229460748FFF7ABF93046FFF7FCF967
:10526C001021304600F09FFB07B0F0BDBF4E0D0083
:10527C008D510D00254A0D0030B585B004460D4604
:10528C0068461146FFF7B9FD7CB124B228460DB132
:10529C0001F042FB029002A96846ADF80C40FFF702
:1052AC001FFE02A8FFF76EFD1DE000988DF8084068
:1052BC004FF00102D0E84F3FA34203D1C0E8412F89
:1052CC000029F7D102D08DF808300CE010F10C0158
:1052DC004FF0010318BF0373BFF35F8F043000F866
:1052EC00033CFFF771FF01A8FEF7E4FE05B030BDEB
:1052FC0008B50C4B33B1FFF78FFC03681B6998475B
:10530C00002809DC084B63B1FFF7F6FB03681B6947
:10531C009847002803DC08BDAFF30080F2E7AFF339
:10532C00008008BD000000000000000008B5FFF779
:10533C00DFFFFFF76DF8014B186008BD2CE7032069
:10534C0007B5002300931A466FF07701FFF742F977
:10535C0003B05DF804FB000007B543880A2B08D0A6
:10536C00502B09D1094B1B683BB103B05DF804EB22
:10537C001847FFF7E5FF06E0002300931A466FF08D
:10538C007701FFF727F903B05DF804FBE4E603208F
:10539C0010B5FFF735F8044601F096FA074B13B138
:1053AC002046AFF3008000210448FFF791F800215C
:1053BC000348BDE81040FFF703B900BF0000000030
:1053CC0065530D0010B50446FFF746F9204610BD95
:1053DC000348044A04490023836000F0DFBA00BF8D
:1053EC00E8E60320ACE30320D1530D000021FFF7C6
:1053FC00CFB80000024B1A68024B1A60704700BF0E
:10540C0044E30320F8E60320014B024A1A6070477C
:10541C00FCE60320C46B0D00F8B506460D468F184C
:10542C000024BD420CD0336815F8011B9B68304634
:10543C009847002801DB0444F3E7002C08BF04461E
:10544C002046F8BD70B505460C46084649B101F03A
:10545C007EFA2B68024621462846DB68BDE8704080
:10546C00184770BD03689B68184738B50D21054671
:10547C00FFF7F8FF0A2104462846FFF7F3FF204404
:10548C0038BD30B58BB00B4600218DF82410012AA5
:10549C0098BF0A220DF12304B3FBF2F505FB12337E
:1054AC0003F0FF03092B94BF30333733DBB22146B3
:1054BC0004F801392B46002DEED1FFF7C3FF0BB0DA
:1054CC0030BD10B42AB903685DF8044B9B68C9B2AF
:1054DC001847D2B25DF8044BFFF7D3BFFFF7F1BF0B
:1054EC000CB42DE9F04387B000AF07F13804054642
:1054FC0054F8049B3C600E4623464A461421381D42
:10550C00FFF792F8132805D8391D2846FFF79AFFA4
:10551C00044613E000F1080323F00703E846ADEB63
:10552C00030D411C23464A4668463C60FFF77CF855
:10553C0069462846FFF786FF0446C5461EB1284635
:10554C00FFF793FF044420461C37BD46BDE8F043EB
:10555C0002B07047024800230360FEF749BF00BF4A
:10556C0000E703202DE9F14F59EC108B07460E464E
:10557C000022002310EE100A494600F08BFF28B1E0
:10558C0009F1004399462D23337001360023012481
:10559C000A22D9B28F4202D954430133F9E720468B
:1055AC0000F0A0FC42464B4600F002FD82468B46C2
:1055BC0000F0D0FF8046894600F0C4FC02460B4642
:1055CC005046594600F040FB0022174B00F076FF86
:1055DC0018B118F1010849F10009E51722462B46CC
:1055EC004046494600F09EFF01230A22314600F056
:1055FC00B3F8AFB1304601F0AAF92E233354013081
:10560C00064422462B464046494600F08BFF3B465B
:10561C00104631460A2201B0BDE8F04F00F09CB8AC
:10562C0001B0BDE8F08F00BF0000E03F10B50446AC
:10563C000068FEF7E1FF204610BD10B50446006877
:10564C0008B1FEF7D9FF00232360A360636010BD8F
:10565C0038B504460D4600680131FEF7D5FF10B190
:10566C0084E82100012038BD10B50368044613B14D
:10567C0043688B4207D22046FFF7EAFF20B1A368AC
:10568C000BB922681370012010BD70B50E4611467F
:10569C0004461546FFF7E8FF18B92046FFF7CDFF83
:1056AC0009E02A463146A560206801F0F9F8226825
:1056BC00A3680021D154204670BD38B500230446A0
:1056CC0003604360836003730D4639B1084601F0F3
:1056DC003EF9294602462046FFF7D7FF204638BD43
:1056EC0038B505460C4641B1084601F030F9214663
:1056FC0002462846FFF7C9FF01E0FFF79EFF284648
:10570C0038BD30B500238BB00360436083600373F6
:10571C00044610EE100ACDB200F0F6FB41EC100B73
:10572C0001A92846FFF71EFF01A92046FFF7D8FF65
:10573C0020460BB030BD10B5044601F008F9013815
:10574C0023182046984206D20278197800F8011BDB
:10575C0003F80129F6E710BD70B50C46911E2229FD
:10576C0020D82546294610B9234430220EE0B0FB40
:10577C00F2F602FB1600C1B205F8011B092894BF12
:10578C003031573105F8011C3046EBE7994202D213
:10579C0001F8012BFAE7002320460B70FFF7CBFF33
:1057AC00204670BD002070BD044B00204FF6FF72E8
:1057BC00187058809A80FEF7E3BE00BF04E7032000
:1057CC00704710B51021044600F0EDF8204610BDCE
:1057DC0070B5084B0360044600250E4640F80C5F7C
:1057EC00FEF7FEFD30462671FEF71AFEA560204638
:1057FC0070BD00BF3C6C0D000079FEF719BE002295
:10580C0011464068FEF7A4BE002211464068FEF720
:10581C00AFBE00224068FEF7A3BE002281F001015A
:10582C004068FEF78DBE00231A4619464068FEF705
:10583C007FBE00231A4619464068FEF771BE00224F
:10584C0011464068FEF764BE002211464068FEF720
:10585C004FBE002202214068FEF752BE00231A46BA
:10586C004068FEF73DBE0000024B03225A60024A1C
:10587C001A6070470CE703204C6C0D0038B50B4DCB
:10588C00296811F001040FD12846FEF704FC58B129
:10589C0021460748FFF7AAF82846FEF701FC054AFF
:1058AC000549034800F07AF8014838BD14E7032095
:1058BC0018E70320ACE30320A1490D0070B50C4C94
:1058CC000C4E0D4D00212046FFF782FF20460B4C5D
:1058DC003246294600F062F801212046FFF778FF96
:1058EC00324629462046BDE8704000F057B800BF4C
:1058FC0030E70320ACE30320CD570D0040E7032035
:10590C0010B504460F48FFF777FF28B1A4F10B033D
:10591C00022B01D8002010BDFFF7B0FFFFF778F87D
:10592C0008B1012CF6D9FFF7E7F8FFF7E1F818B149
:10593C00A4F10903012BEDD9232C8CBF00200120ED
:10594C0010BD00BF30E70320232838B504460D46B0
:10595C000AD8FF2908D0FFF7D3FF28B129462046E3
:10596C00BDE83840FEF774BD38BD38B504460D4669
:10597C00FEF776FDFF2810D0062804D84D2323FA15
:10598C0000F0C30709D42046FFF7BAFF28B1294617
:10599C002046BDE83840FEF76BBD38BD0B460146CE
:1059AC00184600F06FBFFEF772BB08B5FEF744FE59
:1059BC00184B1A68D1075CBF01221A60164B1A6883
:1059CC00D2075CBF01221A60144B1A68D0075CBF67
:1059DC0001221A60124B1A68D1075CBF01221A60AF
:1059EC00104B1A68D2075CBF01221A600E4B1A6862
:1059FC00D0075CBF01221A600C4B1A68D1075CBF40
:105A0C0001221A600A4B1A68D2075CBF01221A6085
:105A1C00704700BF6CE7032068E7032064E70320AE
:105A2C0060E703205CE7032058E7032054E70320DA
:105A3C0050E70320244B1A68D0075CBF01221A6080
:105A4C00224B1A68D1075CBF01221A60204B1A68DE
:105A5C00D2075CBF01221A601E4B1A68D0075CBFCC
:105A6C0001221A601C4B1A68D1075CBF01221A6014
:105A7C001A4B1A68D2075CBF01221A60184B1A68BD
:105A8C00D0075CBF01221A60164B1A68D1075CBFA5
:105A9C0001221A60144B1A68D2075CBF01221A60EB
:105AAC00124B1A68D0075CBF01221A60104B1A689F
:105ABC00D1075CBF01221A600E4B1A68D2075CBF7B
:105ACC0001221A60704700BF9CE7032098E703206F
:105ADC0094E7032090E703208CE7032088E703205A
:105AEC0084E7032080E703207CE7032078E703208A
:105AFC0074E7032070E70320244B1A68D0075CBFBF
:105B0C0001221A60224B1A68D1075CBF01221A606D
:105B1C00204B1A68D2075CBF01221A601E4B1A6810
:105B2C00D0075CBF01221A601C4B1A68D1075CBFFE
:105B3C0001221A601A4B1A68D2075CBF01221A6044
:105B4C00184B1A68D0075CBF01221A60164B1A68F2
:105B5C00D1075CBF01221A60144B1A68D2075CBFD4
:105B6C0001221A60124B1A68D0075CBF01221A601E
:105B7C00104B1A68D1075CBF01221A600E4B1A68D1
:105B8C00D2075CBF01221A60704700BFCCE703202C
:105B9C00C8E70320C4E70320C0E70320BCE70320C9
:105BAC00B8E70320B4E70320B0E70320ACE70320F9
:105BBC00A8E70320A4E70320A0E70320184B1A68EA
:105BCC00D1075CBF01221A60164B1A68D2075CBF62
:105BDC0001221A60144B1A68D0075CBF01221A60AC
:105BEC00124B1A68D1075CBF01221A60104B1A685D
:105BFC00D2075CBF01221A600E4B1A68D0075CBF3B
:105C0C0001221A600C4B1A68D1075CBF01221A6082
:105C1C000A4B1A68D2075CBF01221A60704700BF9A
:105C2C00ECE70320E8E70320E4E70320E0E70320A8
:105C3C00DCE70320D8E70320D4E70320D0E70320D8
:105C4C0081F0004102E000BF83F0004330B54FEA21
:105C5C0041044FEA430594EA050F08BF90EA020F8E
:105C6C001FBF54EA000C55EA020C7FEA645C7FEA21
:105C7C00655C00F0E2804FEA5454D4EB5555B8BF44
:105C8C006D420CDD2C4480EA020281EA030382EAB5
:105C9C00000083EA010180EA020281EA0303362D47
:105CAC0088BF30BD11F0004F4FEA01314FF4801C1A
:105CBC004CEA113102D0404261EB410113F0004F2C
:105CCC004FEA03334CEA133302D0524263EB4303E3
:105CDC0094EA050F00F0A780A4F10104D5F1200E81
:105CEC000DDB02FA0EFC22FA05F2801841F10001DC
:105CFC0003FA0EF2801843FA05F359410EE0A5F1B0
:105D0C0020050EF1200E012A03FA0EFC28BF4CF0E0
:105D1C00020C43FA05F3C01851EBE37101F0004596
:105D2C0007D54FF0000EDCF1000C7EEB00006EEBA3
:105D3C000101B1F5801F1BD3B1F5001F0CD349082D
:105D4C005FEA30004FEA3C0C04F101044FEA445284
:105D5C0012F5800F80F09A80BCF1004F08BF5FEA0B
:105D6C00500C50F1000041EB045141EA050130BDEB
:105D7C005FEA4C0C404141EB010111F4801FA4F18E
:105D8C000104E9D191F0000F04BF01460020B1FAE3
:105D9C0081F308BF2033A3F10B03B3F120020CDA1B
:105DAC000C3208DD02F1140CC2F10C0201FA0CF0F9
:105DBC0021FA02F10CE002F11402D8BFC2F1200C5E
:105DCC0001FA02F120FA0CFCDCBF41EA0C01904014
:105DDC00E41AA2BF01EB0451294330BD6FEA04045D
:105DEC001F3C1CDA0C340EDC04F11404C4F1200248
:105DFC0020FA04F001FA02F340EA030021FA04F35A
:105E0C0045EA030130BDC4F10C04C4F1200220FAB0
:105E1C0002F001FA04F340EA0300294630BD21FAEE
:105E2C0004F0294630BD94F0000F83F4801306BFB4
:105E3C0081F480110134013D4EE77FEA645C18BFA8
:105E4C007FEA655C29D094EA050F08BF90EA020F3F
:105E5C0005D054EA000C04BF1946104630BD91EA37
:105E6C00030F1EBF0021002030BD5FEA545C05D13A
:105E7C004000494128BF41F0004130BD14F5800479
:105E8C003CBF01F5801130BD01F0004545F0FE41ED
:105E9C0041F470014FF0000030BD7FEA645C1ABF22
:105EAC00194610467FEA655C1CBF0B46024650EA59
:105EBC00013406BF52EA033591EA030F41F4002185
:105ECC0030BD00BF90F0000F04BF0021704730B50B
:105EDC004FF4806404F132044FF000054FF00001E0
:105EEC0050E700BF90F0000F04BF0021704730B5A1
:105EFC004FF4806404F1320410F0004548BF404276
:105F0C004FF000013EE700BF42004FEAE2014FEACA
:105F1C0031014FEA02701FBF12F07F4393F07F4FA5
:105F2C0081F06051704792F0000F14BF93F07F4FD7
:105F3C00704730B54FF4607401F0004521F000411A
:105F4C0020E700BF50EA010208BF704730B54FF0A0
:105F5C0000050AE050EA010208BF704730B511F0A5
:105F6C00004502D5404261EB41014FF4806404F1DD
:105F7C0032045FEA915C3FF4DCAE4FF003025FEA5F
:105F8C00DC0C18BF03325FEADC0C18BF033202EBE7
:105F9C00DC02C2F1200300FA03FC20FA02F001FA41
:105FAC0003FE40EA0E0021FA02F11444C1E600BFE0
:105FBC0070B54FF0FF0C4CF4E06C1CEA11541DBF93
:105FCC001CEA135594EA0C0F95EA0C0F00F0DEF85E
:105FDC002C4481EA030621EA4C5123EA4C5350EA43
:105FEC00013518BF52EA033541F4801143F4801394
:105FFC0038D0A0FB02CE4FF00005E1FB02E506F025
:10600C000042E0FB03E54FF00006E1FB03569CF079
:10601C00000F18BF4EF0010EA4F1FF04B6F5007F7F
:10602C0064F5407404D25FEA4E0E6D4146EB0606F1
:10603C0042EAC62141EA55514FEAC52040EA5E507A
:10604C004FEACE2EB4F1FD0C88BFBCF5E06F1ED824
:10605C00BEF1004F08BF5FEA500E50F1000041EB5B
:10606C00045170BD06F0004646EA010140EA020008
:10607C0081EA0301B4EB5C04C2BFD4EB0C0541EA2A
:10608C00045170BD41F480114FF0000E013C00F33F
:10609C00AB8014F1360FDEBF002001F0004170BD63
:1060AC00C4F10004203C35DA0C341BDC04F114047C
:1060BC00C4F1200500FA05F320FA04F001FA05F208
:1060CC0040EA020001F0004221F0004110EBD370D5
:1060DC0021FA04F642EB06015EEA430E08BF20EA01
:1060EC00D37070BDC4F10C04C4F1200500FA04F3A4
:1060FC0020FA05F001FA04F240EA020001F0004136
:10610C0010EBD37041F100015EEA430E08BF20EAA8
:10611C00D37070BDC4F1200500FA05F24EEA020EF0
:10612C0020FA04F301FA05F243EA020321FA04F01F
:10613C0001F0004121FA04F220EA020000EBD370D6
:10614C005EEA430E08BF20EAD37070BD94F0000FD6
:10615C000FD101F00046400041EB010111F4801F0A
:10616C0008BF013CF7D041EA060195F0000F18BFBB
:10617C00704703F00046520043EB030313F4801FF7
:10618C0008BF013DF7D043EA0603704794EA0C0FB1
:10619C000CEA135518BF95EA0C0F0CD050EA4106C7
:1061AC0018BF52EA4306D1D181EA030101F0004144
:1061BC004FF0000070BD50EA410606BF104619466C
:1061CC0052EA430619D094EA0C0F02D150EA013678
:1061DC0013D195EA0C0F05D152EA03361CBF1046B9
:1061EC0019460AD181EA030101F0004141F0FE4158
:1061FC0041F470014FF0000070BD41F0FE4141F4DC
:10620C00780170BD70B54FF0FF0C4CF4E06C1CEADB
:10621C0011541DBF1CEA135594EA0C0F95EA0C0F90
:10622C0000F0A7F8A4EB050481EA030E52EA03354B
:10623C004FEA013100F088804FEA03334FF080556C
:10624C0045EA131343EA12634FEA022245EA111599
:10625C0045EA10654FEA00260EF000419D4208BF4A
:10626C00964244F1FD0404F5407402D25B084FEAF7
:10627C003202B61A65EB03055B084FEA32024FF4A3
:10628C0080104FF4002CB6EB020E75EB030E22BF00
:10629C00B61A754640EA0C005B084FEA3202B6EBC0
:1062AC00020E75EB030E22BFB61A754640EA5C006F
:1062BC005B084FEA3202B6EB020E75EB030E22BFFF
:1062CC00B61A754640EA9C005B084FEA3202B6EB00
:1062DC00020E75EB030E22BFB61A754640EADC00BF
:1062EC0055EA060E18D04FEA051545EA16754FEA21
:1062FC0006164FEAC30343EA52734FEAC2025FEA3F
:10630C001C1CC0D111F4801F0BD141EA00014FF0CD
:10631C0000004FF0004CB6E711F4801F04BF01439E
:10632C000020B4F1FD0C88BFBCF5E06F3FF6AFAEBA
:10633C00B5EB030C04BFB6EB020C5FEA500C50F14A
:10634C00000041EB045170BD0EF0004E4EEA1131CD
:10635C0014EB5C04C2BFD4EB0C0541EA045170BDD4
:10636C0041F480114FF0000E013C90E645EA060E18
:10637C008DE60CEA135594EA0C0F08BF95EA0C0F46
:10638C003FF43BAF94EA0C0F0AD150EA01347FF48E
:10639C0034AF95EA0C0F7FF425AF104619462CE765
:1063AC0095EA0C0F06D152EA03353FF4FDAE1046C8
:1063BC00194622E750EA410618BF52EA43067FF419
:1063CC00C5AE50EA41047FF40DAF52EA43057FF4A9
:1063DC00EBAE12E74FF0FF3C06E000BF4FF0010CB4
:1063EC0002E000BF4FF0010C4DF804CD4FEA410C18
:1063FC007FEA6C5C4FEA430C18BF7FEA6C5C1BD0E5
:10640C0001B050EA410C0CBF52EA430C91EA030F65
:10641C0002BF90EA020F0020704710F1000F91EAC2
:10642C00030F58BF994208BF90422CBFD8176FEA90
:10643C00E37040F0010070474FEA410C7FEA6C5C5E
:10644C0002D150EA013C07D14FEA430C7FEA6C5C65
:10645C00D6D152EA033CD3D05DF8040B704700BF91
:10646C008446104662468C461946634600E000BFDF
:10647C0001B5FFF7B7FF002848BF10F1000F01BDB1
:10648C004DF808EDFFF7F4FF0CBF012000205DF87C
:10649C0008FB00BF4DF808EDFFF7EAFF34BF012001
:1064AC0000205DF808FB00BF4DF808EDFFF7E0FF9A
:1064BC0094BF012000205DF808FB00BF4DF808EDEB
:1064CC00FFF7CEFF94BF012000205DF808FB00BF52
:1064DC004DF808EDFFF7C4FF34BF012000205DF834
:1064EC0008FB00BF4A0011D212F5001211D20DD5D3
:1064FC006FF47873B3EB62520ED44FEAC12343F0BE
:10650C00004343EA505323FA02F070474FF0000067
:10651C00704750EA013002D14FF0FF3070474FF016
:10652C000000704753B94AB9002908BF00281CBFA6
:10653C004FF0FF314FF0FF3000F0A2B9ADF1080C75
:10654C006DE904CE00F02AF8DDF804E0DDE9022361
:10655C0004B07047D0B500220E4B06460F46FFF72D
:10656C0027FDFFF7BFFF0446FFF7ACFC00220A4BE8
:10657C00FFF71EFD02460B4630463946FFF764FB1B
:10658C00FFF7B0FF2346002242EA000210461946EC
:10659C00D0BD00BF0000F03D0000F0412DE9F047F8
:1065AC008C460E460446089D002B50D18A42174655
:1065BC006CD9B2FA82FEBEF1000F0BD0CEF12004E2
:1065CC0020FA04F401FA0EF644EA060C02FA0EF76D
:1065DC0000FA0EF44FEA1749220CBCFBF9F01FFA33
:1065EC0087F809FB10C642EA064600FB08F3B342E3
:1065FC0009D9F61900F1FF3280F02281B34240F242
:10660C001F8102383E44F61AA2B2B6FBF9F309FB1D
:10661C00136642EA064403FB08F8A04509D9E419BD
:10662C0003F1FF3280F00A81A04540F20781023B62
:10663C003C44C8EB040443EA00400021002D62D026
:10664C0024FA0EF400232C606B60BDE8F0878B42BB
:10665C0007D9002D55D0002185E841000846BDE83A
:10666C00F087B3FA83F1002940F09080B34202D353
:10667C00824200F2F880841A66EB03060120B446CD
:10668C00002D40D085E81010BDE8F08712B9012725
:10669C00B7FBF2F7B7FA87FEBEF1000F35D1F31B4B
:1066AC004FEA17481FFA87FC0121B3FBF8F0220CC4
:1066BC0008FB103642EA06460CFB00F3B34207D93E
:1066CC00F61900F1FF3202D2B34200F2CE8010462E
:1066DC00F61AA2B2B6FBF8F308FB136642EA0644BC
:1066EC000CFB03FCA44507D9E41903F1FF3202D2D9
:1066FC00A44500F2B5801346CCEB040443EA0040F9
:10670C009CE729462846BDE8F087CEF1200106FA21
:10671C000EF307FA0EF720FA01F94FEA1748CE40AC
:10672C0049EA0309B6FBF8FA4FEA194408FB1A6662
:10673C001FFA87FC44EA06430AFB0CF29A4200FA61
:10674C000EF40AD9DB190AF1FF3180F087809A42E6
:10675C0040F28480AAF1020A3B449B1A1FFA89F981
:10676C00B3FBF8F108FB113349EA034301FB0CF6C8
:10677C009E4207D9DB1901F1FF326BD29E4269D9D7
:10678C0002393B449B1B41EA0A418EE7C1F1200EC2
:10679C0022FA0EF48B40234320FA0EF706FA01F48A
:1067AC004FEA134C26FA0EF63C43B6FBFCF9270CC9
:1067BC000CFB19661FFA83F847EA064609FB08F733
:1067CC00B74202FA01F200FA01FA08D9F61809F1F7
:1067DC00FF3041D2B7423FD9A9F102091E44F61B42
:1067EC00A0B2B6FBFCF40CFB146640EA064704FBB3
:1067FC0008F8B84507D9FF1804F1FF3028D2B8457E
:10680C0026D9023C1F4444EA0940C8EB0707A0FB09
:10681C0002894F4544464E4614D329D065B3BAEB92
:10682C00040367EB060707FA0EFECB40CF404EEA97
:10683C00030385E888000021BDE8F0871346F8E6DD
:10684C001046E0E6B8EB020469EB03060138E5E715
:10685C000446D8E7114695E78146C0E78A467CE7AF
:10686C00023B3C4448E708460AE702383E442FE71F
:10687C00C245E7D33E46D1E72946BDE8F08700BFC5
:10688C00704700BF10B5054C13462CB10A460146A3
:10689C000220AFF3008010BD204610BD00000000A8
:1068AC0010B5431E0A44914204D011F8014B03F871
:1068BC00014FF8E710BD02440346934202D003F89F
:1068CC00011BFAE77047000038B5124B1C68A36B2C
:1068DC000546D3B91820FDF787FE43F20E33A063AB
:1068EC0003804AF6CD33438041F2342383804EF249
:1068FC006D63C3804DF6EC630381052343810B2349
:10690C00838101220023C0E90423A36B00221D61B3
:10691C005A6138BDA8E30320024B0146186800F009
:10692C0003B800BFA8E3032070B5064608460C4622
:10693C0000F00DF8451C29463046FDF785FE06464D
:10694C0018B12A462146FFF7ABFF304670BD03460F
:10695C0013F8012B002AFBD1181A013870470000DC
:10696C001D400D0059400D0085400D0089400D0063
:10697C0000000000737061726B2F00737061726B9A
:10698C002F6465766963652F6E616D65007B22747B
:10699C00656D7065726174757265223A252E336669
:1069AC002C22646576696365223A222573227D0068
:1069BC007075626C697368696E6720257300676314
:1069CC00702D6576656E74000000000000000000FC
:1069DC0077460D0081460D008B460D0095460D0047
:1069EC009F460D00AB460D00B7460D00C3460D008B
:1069FC00CB460D00D5460D00DF460D000000000013
:106A0C00000000001F480D0015480D000B480D003C
:106A1C0001480D00F5470D00E9470D00DD470D005D
:106A2C00D5470D00CB470D00C1470D00DF460D00CB
:106A3C00000000000000000083490D0079490D00A2
:106A4C006F490D0025490D0063490D0057490D0094
:106A5C004B490D0043490D0039490D002F490D00DC
:106A6C00DF460D000000000000000000A1490D00F1
:106A7C00EB490D00C3490D00A3490D00CB490D0096
:106A8C00D3490D00DB490D00E3490D000000000067
:106A9C00000000004D4A0D009D4A0D00AB4A0D0050
:106AAC0025540D00614A0D00834A0D006F4A0D00FC
:106ABC00974A0D004F4A0D00534A0D00000000008C
:106ACC0000000000634B0D00B34B0D00C14B0D00DB
:106ADC0025540D009F4B0D00654B0D007B4B0D009D
:106AEC00AD4B0D00914B0D005F4B0D0000000000F5
:106AFC0000000000814C0D00714C0D00734C0D001A
:106B0C000000000000000000554D0D005B4D0D0015
:106B1C009F4D0D00694D0D00574D0D005A00252B52
:106B2C003033643A253032750025592D256D2D25CD
:106B3C00645425483A254D3A2553257A00617363F0
:106B4C0074696D6500626175640053657269616C8E
:106B5C000053657269616C31007479706500706105
:106B6C0072616D00636D6400696400686E6400732B
:106B7C0074726D0066696C74006C766C0061646490
:106B8C0048616E646C65720072656D6F7665486104
:106B9C006E646C657200656E756D48616E646C65D3
:106BAC007273004A534F4E53747265616D4C6F672C
:106BBC0048616E646C657200617070002530313014
:106BCC007520005D20002564002C200028293A2027
:106BDC0000205B00636F6465203D20002569006424
:106BEC00657461696C73203D20000D0A0066006CB1
:106BFC006E00666E00636F64650064657461696C39
:106C0C00006E6F6E6500747261636500696E666F0D
:106C1C00007761726E006572726F720070616E69DE
:106C2C006300616C6C0000000000000000000000BC
:106C3C00CD570D00CF570D000000000000000000E4
:106C4C0069580D005F580D0055580D004B580D003C
:106C5C003F580D0033580D0027580D001F580D00DC
:106C6C0015580D000B580D00DF460D0000000000FC
:106C7C000000000000000000000000000000000008
:106C8C0000000000000000000000000000000000F8
:106C9C0000000000000000000000000000000000E8
:106CAC0000000000000000000000000000000000D8
:106CBC0000000000000000000000000000000000C8
:106CCC000000000000000000000000004300000075
:106CDC0009420D00AD470D00D5480D008D490D0042
:106CEC00DD530D0001540D0015540D0061550D00C0
:106CFC00B5570D0075580D00C9580D00BD590D0044
:106D0C00415A0D00055B0D00C95B0D000000000031
:046D1C000000000073
:086D200088F8FF7F010000006C
:106D2800CA690D00496B0D0000000000786C0D0069
:106D3800986C0D00B86C0D00000000000000000009
:106D48000000000000000000D86C0D0000000000EA
:106D5800000000000000000000000000000000002B
:106D6800000000000000000000000000000000001B
:106D7800000000000000000000000000000000000B
:0C6D8800000000000000000048E30320B1
:106D9400FFFFFFFF00000102030405060708090ABC
:106DA4000B0C0D0E0F101112131415161718191AB7
:086DB4001B1C1D1E1F202800FE
:046DBC0078563412BF
:04000003D000401CCD
:00000001FF
